:100000000C942A000C943F000C943F000C943F0089
:100010000C943F000C943F000C943F000C943F0064
:100020000C943F000C943F000C943F000C943F0054
:100030000C943F000C943F000C943F000C943F0044
:100040000C943F000C943F000C943F000C943F0034
:100050000C943F0011241FBECFE5D8E0DEBFCDBF1A
:1000600011E0A0E6B0E0E2E1FDE202C005900D92F1
:10007000A03BB107D9F70E94D2130C9487160C94B9
:100080000000EF92FF920F931F937B018C0120E001
:1000900030E040E05FE40E94ED0388238CF0C8016B
:1000A000B70120E030E040E05FE40E94B9010E9427
:1000B000AB049B01AC01205030404040504806C08A
:1000C000C801B7010E94AB049B01AC01B901CA0190
:1000D0001F910F91FF90EF900895A0E0B0E0E3E74B
:1000E000F0E00C941F16DC012B01FA019C91923078
:1000F00008F439C1EB018881823008F433C19430AF
:1001000069F4843009F02FC111969C91119789816F
:10011000981709F428C1A7EAB0E025C1843009F492
:1001200021C18230A9F4923009F01DC19A01AD01BC
:1001300088E0EA010990AE01E90109929E0181502F
:10014000C1F7E201898111969C918923818308C1BD
:10015000923009F407C112962D903C901397EB0151
:100160008A819B811496AD90BD90CD90DC901797BD
:10017000EC80FD800E811F819101281B390BB90194
:1001800037FF04C066277727621B730B6032710547
:100190000CF061C0121613066CF537014801062EEB
:1001A00004C096948794779467940A94D2F721E0D8
:1001B00030E040E050E004C0220F331F441F551FC1
:1001C0006A95D2F721503040404050402E213F21C7
:1001D00040235123211531054105510521F021E02E
:1001E00030E040E050E079018A01E628F72808294C
:1001F00019293CC0232BD1F1260E371E35014601AB
:10020000062E04C096948794779467940A94D2F744
:1002100021E030E040E050E004C0220F331F441FD3
:10022000551F6A95D2F721503040404050402A2156
:100230003B214C215D21211531054105510521F05E
:1002400021E030E040E050E059016A01A628B728DB
:10025000C828D9280BC0821593052CF01C01AA24AC
:10026000BB24650103C0EE24FF24870111969C91F5
:10027000D20111968C91981709F445C0992339F051
:10028000A80197012A193B094C095D0906C0A6017E
:1002900095012E193F09400B510B57FD08C01182E3
:1002A0003382228224833583468357831DC081E0B5
:1002B00081833382228288279927DC01821B930B5A
:1002C000A40BB50B84839583A683B7830DC0220F3F
:1002D000331F441F551F24833583468357838281F0
:1002E000938101979383828324813581468157814D
:1002F000DA01C9010197A109B1098F5F9F4FAF4F83
:10030000BF4328F30BC0918333822282EA0CFB1C8B
:100310000C1D1D1DE482F5820683178383E0808314
:10032000248135814681578157FF1AC0C901AA2708
:1003300097FDA095BA2F81709070A070B0705695FF
:10034000479537952795822B932BA42BB52B848328
:100350009583A683B7838281938101969383828359
:10036000DF0101C0D201CD01CDB7DEB7E2E10C94CF
:100370003B16A0E2B0E0EFEBF1E00C942B166983A2
:100380007A838B839C832D833E834F835887E9E058
:10039000EE2EF12CEC0EFD1ECE010196B7010E944F
:1003A0009C068E010F5E1F4FCE010596B8010E947C
:1003B0009C068A8991E089278A8BC701B801AE0122
:1003C000475E5F4F0E946D000E94C705A096E6E061
:1003D0000C944716A0E2B0E0E0EFF1E00C942B168D
:1003E00069837A838B839C832D833E834F835887D5
:1003F000F9E0EF2EF12CEC0EFD1ECE010196B701B7
:100400000E949C068E010F5E1F4FCE010596B8011B
:100410000E949C06C701B801AE01475E5F4F0E9473
:100420006D000E94C705A096E6E00C944716A0E276
:10043000B0E0EDE1F2E00C941F1669837A838B83C0
:100440009C832D833E834F835887CE010196BE0146
:10045000675F7F4F0E949C06CE010596BE016F5ECE
:100460007F4F0E949C069985923088F0898982305E
:10047000C8F0943019F4823051F404C0843029F467
:10048000923081F487EA90E0C6C0923049F420E0CF
:100490009A858A89981321E02A87CE010996BBC0E4
:1004A000823049F420E09A858A89981321E02A8BCA
:1004B000CE014196B0C02D843E844F8458886D880B
:1004C0007E888F88988CEE24FF248701AA24BB2481
:1004D000650140E050E060E070E0E0E0F0E0C10184
:1004E00081709070892BE9F0E60CF71C081D191D2E
:1004F0009A01AB012A0D3B1D4C1D5D1D80E090E073
:10050000A0E0B0E0E614F7040805190520F481E046
:1005100090E0A0E0B0E0BA01A901480F591F6A1F9E
:100520007B1FAA0CBB1CCC1CDD1C97FE08C081E005
:1005300090E0A0E0B0E0A82AB92ACA2ADB2A3196C6
:10054000E032F10549F0660C771C881C991C569422
:10055000479437942794C3CFFA85EA892B893C893D
:100560008B859C85280F391F2E5F3F4F17C0CA010E
:1005700081709070892B61F016950795F794E79438
:1005800080E090E0A0E0B0E8E82AF92A0A2B1B2BD3
:1005900076956795579547952F5F3F4F77FDE7CF46
:1005A0000CC0440F551F661F771F17FD4160EE0CEE
:1005B000FF1C001F111F21503040403090E05907B0
:1005C00090E0690790E4790760F32B8F3C8FDB01A3
:1005D000CA018F779070A070B07080349105A1052A
:1005E000B10561F447FD0AC0E114F10401051105EC
:1005F00029F0405C5F4F6F4F7F4F40781A8EFE1797
:1006000011F081E08A8F4D8F5E8F6F8F78A383E02A
:10061000898FCE0149960E94C705A096E2E10C940D
:100620003B16A8E1B0E0E7E1F3E00C9427166983FC
:100630007A838B839C832D833E834F835887B9E0D5
:10064000EB2EF12CEC0EFD1ECE010196B7010E949F
:100650009C068E010F5E1F4FCE010596B8010E94C9
:100660009C062985223008F47EC03989323010F486
:10067000B8017CC08A859A8989278A87243011F03D
:10068000223031F4231709F06EC067EA70E06EC0C3
:10069000343039F41D861E861F86188A1C861B86F8
:1006A00004C0323021F484E08987B7015FC02B8514
:1006B0003C858B899C89281B390B3C872B87ED84D3
:1006C000FE840F851889AD88BE88CF88D88CEA143F
:1006D000FB040C051D0540F4EE0CFF1C001F111F50
:1006E000215030403C872B8720E030E040E050E054
:1006F00080E090E0A0E0B0E460E070E0EA14FB0489
:100700000C051D0540F0282B392B4A2B5B2BEA18D2
:10071000FB080C091D09B695A79597958795EE0CD2
:10072000FF1C001F111F6F5F7F4F6F31710531F785
:10073000DA01C9018F779070A070B0708034910594
:10074000A105B10561F427FD0AC0E114F10401051A
:10075000110529F0205C3F4F4F4F5F4F20782D87C8
:100760003E874F87588BBE01675F7F4FCB010E944A
:10077000C7056896EAE00C944316A8E1B0E0E3EC04
:10078000F3E00C942B1669837A838B839C832D83EF
:100790003E834F83588789E0E82EF12CEC0EFD1E36
:1007A000CE010196B7010E949C068E010F5E1F4F7D
:1007B000CE010596B8010E949C068985823040F0E2
:1007C0008989823028F0C701B8010E94140701C04E
:1007D0008FEF6896E6E00C944716A8E1B0E0E3EFEF
:1007E000F3E00C942B1669837A838B839C832D838F
:1007F0003E834F83588789E0E82EF12CEC0EFD1ED6
:10080000CE010196B7010E949C068E010F5E1F4F1C
:10081000CE010596B8010E949C068985823040F081
:100820008989823028F0C701B8010E94140701C0ED
:100830008FEF6896E6E00C944716A8E1B0E0E3E29B
:10084000F4E00C942B1669837A838B839C832D832D
:100850003E834F83588789E0E82EF12CEC0EFD1E75
:10086000CE010196B7010E949C068E010F5E1F4FBC
:10087000CE010596B8010E949C068985823040F021
:100880008989823028F0C701B8010E94140701C08D
:1008900081E06896E6E00C944716A8E0B0E0E3E556
:1008A000F4E00C9428169B01AC0183E08983DA0103
:1008B000C9018827B7FD83959927AA27BB27B82E9A
:1008C000211531054105510519F482E089833AC0AB
:1008D0008823A9F0203080E0380780E0480780E8CE
:1008E000580729F460E070E080E09FEC30C0EE240F
:1008F000FF248701E21AF30A040B150B02C07901E9
:100900008A018EE1C82ED12CDC82CB82ED82FE8260
:100910000F831887C801B7010E9478050197181640
:10092000190684F4082E04C0EE0CFF1C001F111FD2
:100930000A94D2F7ED82FE820F831887C81AD90A6B
:10094000DC82CB82BA82CE0101960E94C70528962E
:10095000E9E00C944416ACE0B0E0E1EBF4E00C9478
:100960002F1669837A838B839C83CE010196BE0107
:100970006B5F7F4F0E949C068D81823061F18230D7
:1009800050F1843021F48E81882351F12EC02F81C3
:10099000388537FD20C06E812F3131051CF066236C
:1009A000F9F023C08EE190E0821B930B29853A85F4
:1009B0004B855C8504C056954795379527958A9554
:1009C000D2F76623B1F050954095309521953F4F71
:1009D0004F4F5F4F0EC020E030E040E050E009C0D4
:1009E0002FEF3FEF4FEF5FE704C020E030E040E043
:1009F00050E8B901CA012C96E2E00C944B16A8E02D
:100A0000B0E0E5E0F5E00C9427167B018C01611560
:100A100071058105910519F482E0898360C083E046
:100A200089838EE1C82ED12CDC82CB82ED82FE82BE
:100A30000F831887C801B7010E947805FC01319720
:100A4000F7FF3BC0222733272E1B3F0B57016801BE
:100A5000022E04C0D694C794B794A7940A94D2F7F0
:100A600040E050E060E070E081E090E0A0E0B0E0C5
:100A700004C0880F991FAA1FBB1F2A95D2F70197A0
:100A8000A109B1098E219F21A023B1230097A105BF
:100A9000B10521F041E050E060E070E04A295B29B7
:100AA0006C297D294D835E836F8378878EE190E08A
:100AB0008E1B9F0B9C838B8312C0309781F00E2E70
:100AC00004C0EE0CFF1C001F111F0A94D2F7ED8228
:100AD000FE820F831887CE1ADF0ADC82CB821A824D
:100AE000CE0101960E94C7052896EAE00C944316B1
:100AF000EF92FF920F931F937B018C0180E0E81629
:100B000080E0F80681E0080780E0180788F48FEF9E
:100B1000E816F1040105110531F028F088E090E0B5
:100B2000A0E0B0E017C080E090E0A0E0B0E012C02C
:100B300080E0E81680E0F80680E0080781E018070A
:100B400028F088E190E0A0E0B0E004C080E190E00F
:100B5000A0E0B0E020E230E040E050E0281B390B9C
:100B60004A0B5B0B04C016950795F794E7948A959A
:100B7000D2F7F701E155FF4F8081281B3109410968
:100B80005109C9011F910F91FF90EF900895DF92D5
:100B9000EF92FF920F931F93FC01E480F580068192
:100BA0001781D1808081823048F480E090E0A0E11C
:100BB000B0E0E82AF92A0A2B1B2BA5C0843009F4DF
:100BC0009FC0823021F4EE24FF24870105C0E11488
:100BD000F1040105110519F4E0E0F0E096C062812E
:100BE00073819FEF623879070CF05BC022E83FEF1A
:100BF000261B370B2A3131052CF020E030E040E095
:100C000050E02AC0B801A701022E04C0769567956E
:100C1000579547950A94D2F781E090E0A0E0B0E0C4
:100C200004C0880F991FAA1FBB1F2A95D2F70197EE
:100C3000A109B1098E219F21A023B1230097A1050D
:100C4000B10521F081E090E0A0E0B0E09A01AB01B5
:100C5000282B392B4A2B5B2BDA01C9018F77907037
:100C6000A070B07080349105A105B10539F427FF5B
:100C700009C0205C3F4F4F4F5F4F04C0215C3F4F86
:100C80004F4F5F4FE0E0F0E02030A0E03A07A0E0F7
:100C90004A07A0E45A0710F0E1E0F0E079018A0188
:100CA00027C06038710564F5FB01E158FF4FD8019A
:100CB000C7018F779070A070B07080349105A10546
:100CC000B10539F4E7FE0DC080E490E0A0E0B0E0AB
:100CD00004C08FE390E0A0E0B0E0E80EF91E0A1F28
:100CE0001B1F17FF05C016950795F794E7943196DB
:100CF00087E016950795F794E7948A95D1F705C094
:100D0000EE24FF248701EFEFF0E06E2F6795662752
:100D10006795902F9F77D794DD24D7948E2F869553
:100D2000492F462B582F5D29B701CA011F910F91FA
:100D3000FF90EF90DF900895FC01DB01408151812D
:100D40002281622F6F7770E0221F2227221F93815A
:100D5000892F880F822B282F30E0991F9927991F00
:100D600011969C93119721153105A9F5411551054F
:100D70006105710511F482E037C082E89FEF139698
:100D80009C938E9312979A01AB0167E0220F331F59
:100D9000441F551F6A95D1F783E08C930DC0220F35
:100DA000331F441F551F12968D919C9113970197E5
:100DB00013969C938E931297203080E0380780E042
:100DC000480780E4580758F314962D933D934D93AC
:100DD0005C93179708952F3F310579F4411551051C
:100DE0006105710519F484E08C93089564FF03C0D4
:100DF00081E08C9312C01C9210C02F573040139684
:100E00003C932E93129783E08C9387E0440F551FF9
:100E1000661F771F8A95D1F7706414964D935D9382
:100E20006D937C93179708951F93DC01FB019C91B0
:100E3000923008F447C08081823008F443C0943077
:100E400051F411961C91843099F58181682F70E0DE
:100E5000611B71093FC0843021F0923031F482303F
:100E6000B9F18181882389F12DC011961C911197C8
:100E70008230F1F081811817D9F412962D913C91AE
:100E80001397828193818217930794F0281739076B
:100E9000BCF014968D919D910D90BC91A02D248154
:100EA000358146815781281739074A075B0718F4AF
:100EB000112341F00AC082179307A407B50740F435
:100EC000112319F061E070E005C06FEF7FEF02C001
:100ED00060E070E0CB011F910895DF93CF93CDB711
:100EE000DEB7E7E2F0E080EC8083E6E2F0E087E85E
:100EF0008083CF91DF910895DF93CF930F92CDB789
:100F0000DEB78983898187708983A7E2B0E0E7E251
:100F1000F0E08081807E8C93A7E2B0E0E7E2F0E031
:100F200090818981892B8C93A6E2B0E0E6E2F0E023
:100F3000808180648C93E6E2F0E08081882F90E0ED
:100F4000807190700097B9F3A6E2B0E0E6E2F0E0BD
:100F5000808180618C93E4E2F0E0808191810F9048
:100F6000CF91DF910895DF93CF93CDB7DEB7A1E3A3
:100F7000B0E0E1E3F0E0808188608C930E94D107CB
:100F8000CF91DF910895DF93CF93CDB7DEB7A2E382
:100F9000B0E0E2E3F0E0808188608C93CF91DF9154
:100FA0000895DF93CF93CDB7DEB7A2E3B0E0E2E3DD
:100FB000F0E08081877F8C93CF91DF910895DF935C
:100FC000CF93CDB7DEB7A1E3B0E0E1E3F0E08081FD
:100FD0008B7F8C93A2E3B0E0E2E3F0E08081846059
:100FE0008C93CF91DF910895DF93CF930F92CDB77C
:100FF000DEB7E0E3F0E08081882F90E084709070AD
:101000001982009711F481E0898389810F90CF9133
:10101000DF910895DF93CF9300D000D00F92CDB72A
:10102000DEB789836A834B838981853008F0D5C018
:101030008A81893008F0D1C08981282F30E03D8332
:101040002C838C819D818130910509F443C02C81D2
:101050003D81223031052CF48C819D81009771F007
:10106000BCC02C813D812230310509F45FC08C81E8
:101070009D818330910509F485C0AFC08B818823A1
:10108000A9F4AAE3B0E0EAE3F0E08081482F8A8186
:10109000282F30E081E090E0022E02C0880F991FD7
:1010A0000A94E2F7809584238C9397C0AAE3B0E07A
:1010B000EAE3F0E08081482F8A81282F30E081E048
:1010C00090E0022E02C0880F991F0A94E2F7842B49
:1010D0008C9383C08B818823A9F4A7E3B0E0E7E376
:1010E000F0E08081482F8A81282F30E081E090E075
:1010F000022E02C0880F991F0A94E2F7809584237C
:101100008C936BC0A7E3B0E0E7E3F0E08081482F69
:101110008A81282F30E081E090E0022E02C0880F03
:10112000991F0A94E2F7842B8C9357C08B818823F4
:10113000A9F4A4E3B0E0E4E3F0E08081482F8A81E1
:10114000282F30E081E090E0022E02C0880F991F26
:101150000A94E2F7809584238C933FC0A4E3B0E027
:10116000E4E3F0E08081482F8A81282F30E081E09D
:1011700090E0022E02C0880F991F0A94E2F7842B98
:101180008C932BC08B818823A9F4A1E3B0E0E1E329
:10119000F0E08081482F8A81282F30E081E090E0C4
:1011A000022E02C0880F991F0A94E2F780958423CB
:1011B0008C9313C0A1E3B0E0E1E3F0E08081482F1D
:1011C0008A81282F30E081E090E0022E02C0880F53
:1011D000991F0A94E2F7842B8C930F900F900F9035
:1011E0000F900F90CF91DF910895DF93CF9300D0B0
:1011F00000D0CDB7DEB789836A838981853008F056
:1012000052C08981282F30E03C832B838B819C81C5
:101210008130910511F12B813C81223031052CF474
:101220008B819C81009761F03EC02B813C812230F4
:10123000310501F18B819C818330910541F133C0EF
:101240008A81882329F4EAE3F0E08A8180832BC035
:10125000EAE3F0E08A81808326C08A81882329F42A
:10126000E7E3F0E08A8180831EC0E7E3F0E08A8153
:10127000808319C08A81882329F4E4E3F0E08A811D
:10128000808311C0E4E3F0E08A8180830CC08A810E
:10129000882329F4E1E3F0E08A81808304C0E1E35C
:1012A000F0E08A8180830F900F900F900F90CF9184
:1012B000DF910895DF93CF9300D000D00F92CDB788
:1012C000DEB789836A834B838981853008F0D1C07A
:1012D0008981282F30E03D832C838C819D81813052
:1012E000910509F443C02C813D81223031052CF455
:1012F0008C819D81009771F0BCC02C813D81223092
:10130000310509F45FC08C819D818330910509F41A
:1013100085C0AFC08B818823A9F4ABE3B0E0EBE3D9
:10132000F0E08081482F8A81282F30E081E090E032
:10133000022E02C0880F991F0A94E2F78095842339
:101340008C9397C0ABE3B0E0EBE3F0E08081482FF3
:101350008A81282F30E081E090E0022E02C0880FC1
:10136000991F0A94E2F7842B8C9383C08B81882386
:10137000A9F4A8E3B0E0E8E3F0E08081482F8A8197
:10138000282F30E081E090E0022E02C0880F991FE4
:101390000A94E2F7809584238C936BC0A8E3B0E0B5
:1013A000E8E3F0E08081482F8A81282F30E081E057
:1013B00090E0022E02C0880F991F0A94E2F7842B56
:1013C0008C9357C08B818823A9F4A5E3B0E0E5E3B3
:1013D000F0E08081482F8A81282F30E081E090E082
:1013E000022E02C0880F991F0A94E2F78095842389
:1013F0008C933FC0A5E3B0E0E5E3F0E08081482FA7
:101400008A81282F30E081E090E0022E02C0880F10
:10141000991F0A94E2F7842B8C932BC08B8188232D
:10142000A9F4A2E3B0E0E2E3F0E08081482F8A81F2
:10143000282F30E081E090E0022E02C0880F991F33
:101440000A94E2F7809584238C9313C0A2E3B0E062
:10145000E2E3F0E08081482F8A81282F30E081E0AC
:1014600090E0022E02C0880F991F0A94E2F7842BA5
:101470008C930F900F900F900F900F90CF91DF9162
:101480000895DF93CF9300D000D0CDB7DEB7898326
:101490006A838981853090F58981282F30E03C83EB
:1014A0002B838B819C8181309105D1F02B813C81F4
:1014B000223031052CF48B819C81009761F01EC095
:1014C0002B813C812230310581F08B819C818330DE
:1014D000910581F013C0EBE3F0E08A8180830EC0B8
:1014E000E8E3F0E08A81808309C0E5E3F0E08A81E7
:1014F000808304C0E2E3F0E08A8180830F900F9044
:101500000F900F90CF91DF910895DF93CF9300D08C
:1015100000D00F92CDB7DEB78A836B8319828B819F
:10152000883008F084C08A81843008F080C08A81C5
:10153000282F30E03D832C834C815D814130510563
:1015400079F18C819D818230910534F42C813D812B
:101550002115310569F06BC04C815D814230510528
:10156000B9F18C819D818330910509F449C05FC038
:10157000E9E3F0E08081282F30E08B81882F90E034
:10158000A90102C0559547958A95E2F7CA01817075
:101590009070882319F081E0898349C0198247C07F
:1015A000E6E3F0E08081282F30E08B81882F90E007
:1015B000A90102C0559547958A95E2F7CA01817045
:1015C0009070882319F081E0898331C019822FC07F
:1015D000E3E3F0E08081282F30E08B81882F90E0DA
:1015E000A90102C0559547958A95E2F7CA01817015
:1015F0009070882319F081E0898319C0198217C07F
:10160000E0E3F0E08081282F30E08B81882F90E0AC
:10161000A90102C0559547958A95E2F7CA018170E4
:101620009070882319F081E0898301C01982898133
:101630000F900F900F900F900F90CF91DF91089522
:10164000DF93CF9300D000D0CDB7DEB78A83198265
:101650008A81843090F58A81282F30E03C832B8367
:101660008B819C8181309105D1F02B813C8122308E
:1016700031052CF48B819C81009761F01EC02B8179
:101680003C812230310581F08B819C818330910532
:1016900081F013C0E9E3F0E0808189830EC0E6E3C6
:1016A000F0E08081898309C0E3E3F0E080818983F1
:1016B00004C0E0E3F0E08081898389810F900F907E
:1016C0000F900F90CF91DF910895DF93CF93CDB717
:1016D000DEB760970FB6F894DEBF0FBECDBF81E0D6
:1016E00060E040E00E940A0881E061E040E00E9482
:1016F0000A0881E062E040E00E940A0881E063E0BD
:1017000040E00E940A0881E064E040E00E940A088C
:1017100081E065E040E00E940A0881E066E040E088
:101720000E940A0881E067E040E00E940A081F86E4
:10173000ABC081E06F8541E00E940A0881E06F85BF
:1017400040E00E945A09188A22C08889982F9C5F1D
:1017500081E0692F0E94850A8823B1F48F85882F44
:1017600090E0880F991F880F991F982F8889890FFB
:101770008F5F0E94490C60960FB6F894DEBF0FBED3
:10178000CDBFCF91DF91089588898F5F888B88893D
:101790008430D8F281E06F8540E00E940A0880E042
:1017A00090E0A0E2B1E48B879C87AD87BE876B8514
:1017B0007C858D859E8520E030E04AE755E40E94D7
:1017C0001702DC01CB018F839887A987BA876F81C5
:1017D000788589859A8520E030E040E85FE30E94C3
:1017E0001D0488232CF481E090E09E838D833FC00C
:1017F0006F81788589859A8520E03FEF4FE757E430
:101800000E94BD0318164CF56B857C858D859E85E1
:1018100020E030E040E251E40E941702DC01CB01FD
:10182000BC01CD010E944100DC01CB019E838D8370
:101830000FC080E991E09C838B838B819C81019711
:10184000F1F79C838B838D819E8101979E838D838D
:101850008D819E81009769F714C06F817885898595
:101860009A850E944100DC01CB019E838D838D818E
:101870009E819A83898389819A810197F1F79A835E
:1018800089838F858F5F8F878F85843008F451CF50
:101890004ECFDF93CF9300D000D0CDB7DEB78A8391
:1018A00019828A81282F30E03C832B838B819C8195
:1018B0008830910509F470C02B813C8129303105B5
:1018C0005CF58B819C818430910509F459C02B8192
:1018D0003C81253031059CF48B819C8182309105BF
:1018E00009F448C02B813C81233031050CF045C000
:1018F0008B819C818130910509F439C067C02B81AF
:101900003C812630310509F441C08B819C818730B0
:1019100091050CF03EC037C02B813C812C30310545
:1019200009F446C08B819C818D3091055CF42B813C
:101930003C812A303105B1F18B819C818B3091053E
:10194000A4F52DC02B813C812E303105B9F18B815E
:101950009C818E3091057CF12B813C812F303105AB
:1019600079F18B819C818031910569F12FC087E0ED
:1019700089832EC088E089832BC089E0898328C0B1
:1019800085E2898325C084E0898322C085E089833C
:101990001FC086E089831CC08AE2898319C081E068
:1019A000898316C082E0898313C083E0898310C0D5
:1019B0008DE289830DC08DE089830AC0198208C039
:1019C0008DE3898305C08BE2898302C08A81898384
:1019D00089810F900F900F900F90CF91DF91089514
:1019E000DF93CF93CDB7DEB72E970FB6F894DEBF57
:1019F0000FBECDBF83E060E041E00E940A0883E0B3
:101A000061E041E00E940A0880E090E0A0EAB1E4D1
:101A10008B879C87AD87BE876B857C858D859E85F2
:101A200020E030E04AE755E40E941702DC01CB01D8
:101A30008F839887A987BA876F81788589859A85EA
:101A400020E030E040E85FE30E941D0488232CF48E
:101A500081E090E09E838D833FC06F81788589858A
:101A60009A8520E03FEF4FE757E40E94BD03181628
:101A70004CF56B857C858D859E8520E030E040E2CD
:101A800051E40E941702DC01CB01BC01CD010E9490
:101A90004100DC01CB019E838D830FC080E991E082
:101AA0009C838B838B819C810197F1F79C838B8333
:101AB0008D819E8101979E838D838D819E8100976C
:101AC00069F714C06F81788589859A850E944100E5
:101AD000DC01CB019E838D838D819E819A838983D6
:101AE00089819A810197F1F79A83898382E06FEF68
:101AF0000E94F50888E30E948C0D8CE00E948C0DFA
:101B000081E00E948C0D2E960FB6F894DEBF0FBEBA
:101B1000CDBFCF91DF910895DF93CF93CDB7DEB7DF
:101B2000E9970FB6F894DEBF0FBECDBF89AF83E053
:101B300060E040E00E945A0980E090E0A0E8BFE346
:101B40008DAB9EABAFABB8AF6DA97EA98FA998AD99
:101B500020E030E04AE755E40E941702DC01CB01A7
:101B600089AB9AABABABBCAB69A97AA98BA99CA991
:101B700020E030E040E85FE30E941D0488232CF45D
:101B800081E090E098AB8FA73FC069A97AA98BA9A3
:101B90009CA920E03FEF4FE757E40E94BD031816D1
:101BA0004CF56DA97EA98FA998AD20E030E040E208
:101BB00051E40E941702DC01CB01BC01CD010E945F
:101BC0004100DC01CB0198AB8FA70FC080E991E009
:101BD0009EA78DA78DA59EA50197F1F79EA78DA71E
:101BE0008FA598A9019798AB8FA78FA598A9009763
:101BF00069F714C069A97AA98BA99CA90E94410020
:101C0000DC01CB0198AB8FA78FA598A99CA78BA7C8
:101C10008BA59CA50197F1F79CA78BA783E061E0BA
:101C200041E00E945A0980E090E0A0E8BFE38FA362
:101C300098A7A9A7BAA76FA178A589A59AA520E01A
:101C400030E04AE755E40E941702DC01CB018BA388
:101C50009CA3ADA3BEA36BA17CA18DA19EA120E0FE
:101C600030E040E85FE30E941D0488232CF481E00B
:101C700090E09AA389A33FC06BA17CA18DA19EA1F6
:101C800020E03FEF4FE757E40E94BD0318164CF5E4
:101C90006FA178A589A59AA520E030E040E251E443
:101CA0000E941702DC01CB01BC01CD010E94410062
:101CB000DC01CB019AA389A30FC080E991E098A32E
:101CC0008F8F8F8D98A10197F1F798A38F8F89A19E
:101CD0009AA101979AA389A389A19AA1009769F76C
:101CE00014C06BA17CA18DA19EA10E944100DC01CA
:101CF000CB019AA389A389A19AA19E8F8D8F8D8DE7
:101D00009E8D0197F1F79E8F8D8F82E069AD0E94C5
:101D1000410A80E090E0A0E8BFE3898F9A8FAB8F03
:101D2000BC8F698D7A8D8B8D9C8D20E030E04AE7E9
:101D300055E40E941702DC01CB018D8B9E8BAF8B8B
:101D4000B88F6D897E898F89988D20E030E040E8DA
:101D50005FE30E941D0488232CF481E090E09C8BBB
:101D60008B8B3FC06D897E898F89988D20E03FEFF6
:101D70004FE757E40E94BD0318164CF5698D7A8D24
:101D80008B8D9C8D20E030E040E251E40E941702F0
:101D9000DC01CB01BC01CD010E944100DC01CB0183
:101DA0009C8B8B8B0FC080E991E09A8B898B898902
:101DB0009A890197F1F79A8B898B8B899C89019776
:101DC0009C8B8B8B8B899C89009769F714C06D89DC
:101DD0007E898F89988D0E944100DC01CB019C8B0C
:101DE0008B8B8B899C89988B8F878F85988901979E
:101DF000F1F7988B8F8783E061E040E00E945A09F9
:101E000080E090E0A0E8BFE38B879C87AD87BE872A
:101E10006B857C858D859E8520E030E04AE755E422
:101E20000E941702DC01CB018F839887A987BA87AC
:101E30006F81788589859A8520E030E040E85FE30E
:101E40000E941D0488232CF481E090E09E838D8302
:101E50003FC06F81788589859A8520E03FEF4FE705
:101E600057E40E94BD0318164CF56B857C858D8563
:101E70009E8520E030E040E251E40E941702DC0140
:101E8000CB01BC01CD010E944100DC01CB019E834E
:101E90008D830FC080E991E09C838B838B819C8133
:101EA0000197F1F79C838B838D819E8101979E839F
:101EB0008D838D819E81009769F714C06F8178852D
:101EC00089859A850E944100DC01CB019E838D8328
:101ED0008D819E819A83898389819A810197F1F707
:101EE0009A838983E9960FB6F894DEBF0FBECDBF03
:101EF000CF91DF910895DF93CF93CDB7DEB7E99708
:101F00000FB6F894DEBF0FBECDBF89AF83E060E0AF
:101F100041E00E945A0980E090E0A0E8BFE38DAB69
:101F20009EABAFABB8AF6DA97EA98FA998AD20E0ED
:101F300030E04AE755E40E941702DC01CB0189AB8F
:101F40009AABABABBCAB69A97AA98BA99CA920E0E1
:101F500030E040E85FE30E941D0488232CF481E018
:101F600090E098AB8FA73FC069A97AA98BA99CA9DB
:101F700020E03FEF4FE757E40E94BD0318164CF5F1
:101F80006DA97EA98FA998AD20E030E040E251E430
:101F90000E941702DC01CB01BC01CD010E9441006F
:101FA000DC01CB0198AB8FA70FC080E991E09EA721
:101FB0008DA78DA59EA50197F1F79EA78DA78FA54B
:101FC00098A9019798AB8FA78FA598A9009769F753
:101FD00014C069A97AA98BA99CA90E944100DC01BF
:101FE000CB0198AB8FA78FA598A99CA78BA78BA592
:101FF0009CA50197F1F79CA78BA783E061E041E0E6
:102000000E945A0980E090E0A0E8BFE38FA398A760
:10201000A9A7BAA76FA178A589A59AA520E030E065
:102020004AE755E40E941702DC01CB018BA39CA375
:10203000ADA3BEA36BA17CA18DA19EA120E030E049
:1020400040E85FE30E941D0488232CF481E090E0C7
:102050009AA389A33FC06BA17CA18DA19EA120E082
:102060003FEF4FE757E40E94BD0318164CF56FA1F0
:1020700078A589A59AA520E030E040E251E40E94CD
:102080001702DC01CB01BC01CD010E944100DC0143
:10209000CB019AA389A30FC080E991E098A38F8F09
:1020A0008F8D98A10197F1F798A38F8F89A19AA19D
:1020B00001979AA389A389A19AA1009769F714C0EF
:1020C0006BA17CA18DA19EA10E944100DC01CB01EE
:1020D0009AA389A389A19AA19E8F8D8F8D8D9E8DA4
:1020E0000197F1F79E8F8D8F82E069AD0E94410AC2
:1020F00080E090E0A0E8BFE3898F9A8FAB8FBC8F20
:10210000698D7A8D8B8D9C8D20E030E04AE755E417
:102110000E941702DC01CB018D8B9E8BAF8BB88F99
:102120006D897E898F89988D20E030E040E85FE3FB
:102130000E941D0488232CF481E090E09C8B8B8B03
:102140003FC06D897E898F89988D20E03FEF4FE7F2
:1021500057E40E94BD0318164CF5698D7A8D8B8D5E
:102160009C8D20E030E040E251E40E941702DC0147
:10217000CB01BC01CD010E944100DC01CB019C8B55
:102180008B8B0FC080E991E09A8B898B89899A8922
:102190000197F1F79A8B898B8B899C8901979C8B8E
:1021A0008B8B8B899C89009769F714C06D897E8918
:1021B0008F89988D0E944100DC01CB019C8B8B8B19
:1021C0008B899C89988B8F878F8598890197F1F7E8
:1021D000988B8F8783E061E040E00E945A0980E09D
:1021E00090E0A0E8BFE38B879C87AD87BE876B85B7
:1021F0007C858D859E8520E030E04AE755E40E948D
:102200001702DC01CB018F839887A987BA876F817A
:10221000788589859A8520E030E040E85FE30E9478
:102220001D0488232CF481E090E09E838D833FC0C1
:102230006F81788589859A8520E03FEF4FE757E4E5
:102240000E94BD0318164CF56B857C858D859E8597
:1022500020E030E040E251E40E941702DC01CB01B3
:10226000BC01CD010E944100DC01CB019E838D8326
:102270000FC080E991E09C838B838B819C810197C7
:10228000F1F79C838B838D819E8101979E838D8343
:102290008D819E81009769F714C06F81788589854B
:1022A0009A850E944100DC01CB019E838D838D8144
:1022B0009E819A83898389819A810197F1F79A8314
:1022C0008983E9960FB6F894DEBF0FBECDBFCF91DC
:1022D000DF910895DF93CF9300D00F92CDB7DEB793
:1022E0009B838A8319820EC08981282F30E08A81DE
:1022F0009B81FC01E20FF31F80810E947B0F89818B
:102300008F5F89838981282F30E08A819B81FC013E
:10231000E20FF31F8081882339F70F900F900F9001
:10232000CF91DF910895DF93CF9300D000D00F922B
:10233000CDB7DEB78A836B838A81282F30E03D8357
:102340002C838C819D8181309105C1F02C813D8150
:10235000223031052CF48C819D81009761F019C0E9
:102360002C813D812230310569F08C819D81833043
:10237000910561F00EC08B8189830BC08B81805CDD
:10238000898307C08B81805F898303C08B81805BD9
:102390008983898180680E948C0D0F900F900F9027
:1023A0000F900F90CF91DF910895DF93CF9300D0DE
:1023B00000D0CDB7DEB789836A835C834B83898184
:1023C0006A810E9493118B819C810E946A110F90F7
:1023D0000F900F900F90CF91DF910895DF93CF93DF
:1023E000CDB7DEB762970FB6F894DEBF0FBECDBF94
:1023F0009A8B898B89899A899E012F5F3F4FB901FA
:102400004AE050E00E945616CE0101960E946A11E1
:1024100062960FB6F894DEBF0FBECDBFCF91DF91AD
:102420000895DF93CF93CDB7DEB781E00E948C0D86
:10243000CF91DF910895DF93CF93CDB7DEB7289783
:102440000FB6F894DEBF0FBECDBF80E00E947C07C0
:1024500098878F838F819885CC01A0E0B0E0BC0184
:10246000CD010E94FF04DC01CB01BC01CD012AE0BB
:1024700037ED43E250E40E941702DC01CB01BC01BE
:10248000CD0120E030EC4FE754E40E941103DC0161
:10249000CB018B839C83AD83BE836B817C818D81DB
:1024A0009E8120E030E048EC52E40E941702DC01FB
:1024B000CB01BC01CD012AE037ED43E250E40E949C
:1024C0001103DC01CB01BC01CD010E944100DC0104
:1024D000CB019A83898389819A8128960FB6F894D3
:1024E000DEBF0FBECDBFCF91DF910895DF93CF93B5
:1024F000CDB7DEB781E065E041E00E940A0881E0E7
:1025000066E041E00E940A0881E067E041E00E9445
:102510000A0880E00E94951281E00E94951282E0F4
:102520000E949512CF91DF910895DF93CF9300D051
:102530000F92CDB7DEB789838981282F30E03B83A6
:102540002A838A819B818130910579F02A813B81A0
:102550002230310581F08A819B81009789F481E0E6
:1025600065E041E00E945A090BC081E066E041E06D
:102570000E945A0905C081E067E041E00E945A09C3
:102580000F900F900F90CF91DF910895DF93CF932D
:1025900000D00F92CDB7DEB789838981282F30E034
:1025A0003B832A838A819B818130910579F02A813E
:1025B0003B812230310581F08A819B81009789F42B
:1025C00081E065E040E00E945A090BC081E066E0CE
:1025D00040E00E945A0905C081E067E040E00E94A7
:1025E0005A090F900F900F90CF91DF910895DF93CC
:1025F000CF9300D00F92CDB7DEB71B821A8219821B
:1026000081E00E947C079A83898389819A81CC0129
:10261000A0E0B0E026E930E040E050E0BC01CD01B0
:102620000E94D915DC01CB01BC01CD010E94FF0441
:10263000DC01CB01BC01CD012AE037ED43E250E4DF
:102640000E941702DC01CB01BC01CD0120E030ED7E
:102650004FEB54E40E941103DC01CB01BC01CD011E
:102660000E944100DC01CB018B838B810F900F9086
:102670000F90CF91DF910895DF93CF9300D0CDB726
:10268000DEB79A83898389819A818031910550F4DC
:1026900080E00E94951281E00E94951282E00E94E3
:1026A000951231C089819A818031910578F08981B4
:1026B0009A818333910550F480E00E94951281E065
:1026C0000E94951282E00E94C6121DC089819A81E3
:1026D0008333910578F089819A818734910550F48C
:1026E00080E00E94951281E00E94C61282E00E9462
:1026F000C61209C080E00E94C61281E00E94C61284
:1027000082E00E94C6120F900F90CF91DF91089542
:10271000DF93CF93CDB7DEB7AAE3B0E0EAE3F0E012
:1027200080818E7F8C93CF91DF910895DF93CF933B
:10273000CDB7DEB70E94111212C00E94C30780E01D
:1027400063E00E94931180E690E00E946A1181E0AC
:1027500060E00E9493118DE690E00E946A110E9451
:10276000F407882351F30E94D1070E94111280E0E0
:1027700060E00E9493118EE790E00E946A1181E070
:1027800060E00E94931189E890E00E946A1181E064
:1027900068E00E94931182E990E00E946A11CF9153
:1027A000DF910895DF93CF93CDB7DEB72A970FB6A9
:1027B000F894DEBF0FBECDBF19820E9488130E941D
:1027C000DF070E94F00C0E946D070E9441150E94D5
:1027D000B30780E060E00E9493118EE790E00E94D2
:1027E0006A1181E060E00E94931189E890E00E9404
:1027F0006A1181E068E00E94931182E990E00E94F2
:102800006A110E94F407882311F40E9496130E9413
:102810001B129C838B830E94F7128A838B819C817D
:102820000E943C1380E06AE00E9493118981882312
:1028300021F48BE990E00E946A118981813021F4B2
:1028400081EA90E00E946A1181E06CE00E9493119D
:102850008B819C818436910528F08B819C810E941C
:10286000EE1107C08B819C810E94EE1180E20E94D4
:102870007B0F81E065E00E9493118A81843630F0FD
:102880008A81882F90E00E94EE1108C08A81882FEB
:1028900090E00E94EE1180E20E947B0F8A81882FD7
:1028A00090E0AA2797FDA095BA2FBC01CD010E9408
:1028B0004D04DC01CB01BC01CD0120E030E040E261
:1028C00052E40E94ED0388233CF081E064E60E941C
:1028D000561581E0898395CF8A81882F90E0AA27B9
:1028E00097FDA095BA2FBC01CD010E944D04DC01DB
:1028F000CB011A86BC01CD0120E030E04CE052E46F
:102900000E94ED03882314F081E08A8781E09A8594
:102910008927882331F58A81882F90E0AA2797FD9F
:10292000A095BA2FBC01CD010E944D04DC01CB0162
:102930001986BC01CD0120E030E040E252E40E9463
:102940001D04882314F481E0898781E09985892713
:10295000882339F481E06BE40E94561581E0898375
:1029600050CF8A81882F90E0AA2797FDA095BA2F93
:10297000BC01CD010E944D04DC01CB011886BC01D5
:10298000CD0120E030E040EF51E40E94ED038823C8
:1029900014F081E0888781E098858927882331F5C4
:1029A0008A81882F90E0AA2797FDA095BA2FBC01B5
:1029B000CD010E944D04DC01CB011F82BC01CD0181
:1029C00020E030E04CE052E40E941D04882314F41F
:1029D00081E08F8381E09F818927882339F481E01A
:1029E00062E30E94561581E089830BCF8A81882F8C
:1029F00090E0AA2797FDA095BA2FBC01CD010E94B7
:102A00004D04DC01CB011E82BC01CD0120E030E091
:102A100048EC51E40E94ED03882314F081E08E839A
:102A200081E09E818927882331F58A81882F90E073
:102A3000AA2797FDA095BA2FBC01CD010E944D0495
:102A4000DC01CB011D82BC01CD0120E030E040EF74
:102A500051E40E941D04882314F481E08D8381E0F9
:102A60009D818927882339F481E069E10E94561508
:102A700081E08983C6CE80E060E00E94561519820D
:102A8000C0CEDF93CF93CDB7DEB7A7E3B0E0E7E3E7
:102A9000F0E080818B608C93A8E3B0E0E8E3F0E0A5
:102AA00080818C7F8C93CF91DF910895DF93CF93BA
:102AB00000D000D0CDB7DEB789836A838A810E94B7
:102AC000A0158981282F30E03C832B838B819C814A
:102AD0008130910589F02B813C8122303105D9F07C
:102AE0008B819C81009729F5A8E3B0E0E8E3F0E052
:102AF00080818C7F8C931DC0A8E3B0E0E8E3F0E018
:102B0000808181608C93A8E3B0E0E8E3F0E080810D
:102B10008D7F8C930EC0A8E3B0E0E8E3F0E0808105
:102B200082608C93A8E3B0E0E8E3F0E080818E7FE0
:102B30008C930F900F900F900F90CF91DF9108958D
:102B4000DF93CF930F92CDB7DEB78983A7E3B0E0D1
:102B5000E7E3F0E0808188608C93E3E5F0E088E6CD
:102B60008083A3E5B0E0E3E5F0E0808185608C93AD
:102B7000ECE5F0E08981482F50E0CA019C01220F6A
:102B8000331FC9019695982F882797958795821BA3
:102B9000930B840F951F24E630E0B9010E94F815CD
:102BA000CB018083E2E5F0E010820F90CF91DF91BE
:102BB0000895629FD001739FF001829FE00DF11D87
:102BC000649FE00DF11D929FF00D839FF00D749FA7
:102BD000F00D659FF00D9927729FB00DE11DF91F53
:102BE000639FB00DE11DF91FBD01CF0111240895B0
:102BF00097FB092E07260AD077FD04D00CD006D00B
:102C000000201AF4709561957F4F0895F6F790951E
:102C100081959F4F0895AA1BBB1B51E107C0AA1FB6
:102C2000BB1FA617B70710F0A61BB70B881F991F6D
:102C30005A95A9F780959095BC01CD0108952F92E2
:102C40003F924F925F926F927F928F929F92AF923C
:102C5000BF92CF92DF92EF92FF920F931F93CF9389
:102C6000DF93CDB7DEB7CA1BDB0B0FB6F894DEBF20
:102C70000FBECDBF09942A88398848885F846E8446
:102C80007D848C849B84AA84B984C884DF80EE8090
:102C9000FD800C811B81AA81B981CE0FD11D0FB699
:102CA000F894DEBF0FBECDBFED010895FB019F017B
:102CB000E8944230C4F04532B4F44A3029F497FB2A
:102CC0001EF4909581959F4F642F77270E940B16D5
:102CD000805D8A330CF0895D8193CB010097A1F769
:102CE00016F45DE251931082C9010C947716DC0151
:102CF000FC01672F71917723E1F7329704C07C9133
:102D00006D9370836291AE17BF07C8F30895F8946E
:022D1000FFCFF3
:102D1200414C455254202121212121200046495273
:102D22004520444554454354454421212100202057
:102D32002046616E206973200054656D703D20202D
:102D420020004C44523D20202025004F46462020A2
:102D5200004F4E2020200000000000000000000074
:102D6200010202030303030404040404040404052B
:102D72000505050505050505050505050505050600
:102D820006060606060606060606060606060606E1
:102D920006060606060606060606060606060607D0
:102DA20007070707070707070707070707070707B1
:102DB20007070707070707070707070707070707A1
:102DC2000707070707070707070707070707070791
:102DD2000707070707070707070707070707070880
:102DE2000808080808080808080808080808080861
:102DF2000808080808080808080808080808080851
:102E02000808080808080808080808080808080840
:102E12000808080808080808080808080808080830
:102E22000808080808080808080808080808080820
:102E32000808080808080808080808080808080810
:102E42000808080808080808080808080808080800
:102E520008080808080808080808080808080800F8
:00000001FF
